:020000040800F2
:1000000000280020FD170008791700087F17000856
:10001000851700088B1700089117000800000000E2
:10002000000000000000000000000000971700081A
:10003000A317000800000000AF170008BB17000856
:10004000451800084518000845180008451800081C
:10005000451800084518000845180008451800080C
:1000600045180008451800084518000845180008FC
:1000700045180008451800084518000845180008EC
:1000800045180008451800084518000845180008DC
:1000900045180008451800084518000845180008CC
:1000A00045180008451800084518000845180008BC
:1000B000C91700084518000800000000451800088E
:1000C0004518000800000000000000004518000866
:1000D0000000000045180008451800080000000056
:1000E00045180008451800084518000800000000E1
:1000F0000000000000000000000000000000000000
:0C01000000000000000000005FF808F1A3
:10010C0010B5054C237833B9044B13B10448AFF345
:10011C0000800123237010BD1C0000200000000093
:10012C00742E000808B5034B1BB103490348AFF309
:10013C00008008BD0000000020000020742E000884
:10014C0080B483B000AF00237B602AE0194A7B683F
:10015C00134401221A70184A7B68134401221A7046
:10016C00164A7B68134401221A70154A7B681344A3
:10017C0001221A70134A7B68134400221A70124A27
:10018C007B68134400221A70104A7B68002122F805
:10019C0013100F4A7B68002122F813107B6801337F
:1001AC007B607B68022BD1DD00BF00BF0C37BD46E6
:1001BC0080BC7047380000203C000020400000202C
:1001CC0044000020480000204C000020500000207B
:1001DC005800002080B582B000AF00237B6092E015
:1001EC004D4A7B68134419784C4A7B6813440A4681
:1001FC001A704B4A7B6813441978474A7B6813443E
:10020C000A461A7001227B6802FA03F39BB2194664
:10021C00444801F0FDFD03461946414A7B681344EE
:10022C000A461A703E4A7B6813441A783A497B682E
:10023C000B441B789A4212D1384A7B6813441A78C3
:10024C0035497B680B441B789A4208D1344A7B6849
:10025C0013441978344A7B6813440A461A70324A9C
:10026C007B6813441B78002B36D1304A7B6832F8FC
:10027C001330C72B0AD82D4A7B6832F81330013360
:10028C0099B22A4A7B6822F8131039E0284A7B6815
:10029C00134401221A70274A7B6832F81330312B31
:1002AC002ED8244A7B6832F81330013399B2214A94
:1002BC007B6822F813101F4A7B6832F81330312BFD
:1002CC001ED91C4A7B68002122F813101A4A7B683D
:1002DC00134401221A7013E0144A7B68002122F89F
:1002EC001310134A7B68134400221A70114A7B685E
:1002FC00002122F81310104A7B68134400221A7054
:10030C007B6801337B607B68022B7FF769AF00BF92
:10031C0000BF0837BD4680BD4000002044000020CF
:10032C003C000020000C0140380000205000002050
:10033C0048000020580000204C00002080B483B0FE
:10034C0000AF0346FB71FB79022B01D9002307E0B8
:10035C00FB79064AD35C002B0CBF01230023DBB2D4
:10036C0018460C37BD4680BC704700BF38000020D3
:10037C0080B483B000AF0346FB71FB79022B01D92B
:10038C00002307E0FB79064AD35C012B0CBF012349
:10039C000023DBB218460C37BD4680BC704700BF4B
:1003AC004800002080B483B000AF0346FB71FB799A
:1003BC00022B01D9002307E0FB79064AD35C012B01
:1003CC000CBF01230023DBB218460C37BD4680BCA2
:1003DC00704700BF4C00002080B483B000AF0346D0
:1003EC00FB71FB79034A0021D15400BF0C37BD4689
:1003FC0080BC70474C00002080B500AFAB4B1B6835
:10040C00013BAA4A1360AA4B1B68013BA84A136024
:10041C00A84B1B78022B69D0022B00F39880002B81
:10042C0002D0012B31D092E001224FF48071A2480E
:10043C0001F005FD00224FF400719F4801F0FFFC14
:10044C0000224FF480619C4801F0F9FC974B1B682B
:10045C00002B7EDA994B1B68013B944A1360954B39
:10046C0002221A7000224FF48071934801F0E7FCCD
:10047C0000224FF40071904801F0E1FC01224FF48E
:10048C0080618D4801F0DBFC63E000224FF4807149
:10049C00894801F0D4FC01224FF40071864801F028
:1004AC00CEFC00224FF48061834801F0C8FC7F4BE6
:1004BC001B68002B4FDA824B1B68013B7B4A136095
:1004CC007C4B00221A7001224FF480717A4801F0A3
:1004DC00B6FC00224FF40071774801F0B0FC00220A
:1004EC004FF48061744801F0AAFC34E000224FF410
:1004FC008071714801F0A3FC00224FF400716E482A
:10050C0001F09DFC01224FF480616B4801F097FCD7
:10051C00664B1B68002B20DA6A4B1B68013B634A55
:10052C001360644B01221A7000224FF480716248F0
:10053C0001F085FC01224FF400715F4801F07FFC53
:10054C0000224FF480615C4801F079FC05E000BFAB
:10055C0004E000BF02E000BF00E000BF5A4B1B7874
:10056C00022B69D0022B00F39880002B02D0012BB8
:10057C0031D092E001224FF400614F4801F05FFC52
:10058C0000224FF480514C4801F059FC00224FF4EA
:10059C000051494801F053FC454B1B68002B7EDA97
:1005AC00464B1B68013B424A1360474B02221A70B0
:1005BC0000224FF40061404801F041FC00224FF44E
:1005CC0080513D4801F03BFC01224FF400513A4868
:1005DC0001F035FC63E000224FF40061364801F075
:1005EC002EFC01224FF48051334801F028FC0022EC
:1005FC004FF40051304801F022FC2D4B1B68002BAE
:10060C004FDA2F4B1B68013B294A13602E4B0022FB
:10061C001A7001224FF40061274801F010FC0022EF
:10062C004FF48051244801F00AFC00224FF4005191
:10063C00214801F004FC34E000224FF400611E4814
:10064C0001F0FDFB00224FF480511B4801F0F7FB39
:10065C0001224FF40051184801F0F1FB144B1B68B8
:10066C00002B20DA174B1B68013B114A1360164B09
:10067C0001221A7000224FF400610F4801F0DFFBD9
:10068C0001224FF480510C4801F0D9FB00224FF4A9
:10069C000051094801F0D3FB05E000BF04E000BFA6
:1006AC0002E000BF00E000BF00BF80BD04000020DE
:1006BC000800002063000020000C014070000020A6
:1006CC0068000020780000200C00002080B500AFEE
:1006DC004FF48071104801F0CAFB4FF400610E48D2
:1006EC0001F0C5FB00224FF400710B4801F0A7FB91
:1006FC0000224FF48061084801F0A1FB00224FF466
:10070C008051054801F09BFB00224FF40051024838
:10071C0001F095FB00BF80BD000C014080B500AF1F
:10072C004FF40071104801F0A2FB4FF480510E48B9
:10073C0001F09DFB00224FF480710B4801F07FFB10
:10074C0000224FF48061084801F079FB00224FF43D
:10075C000061054801F073FB00224FF40051024880
:10076C0001F06DFB00BF80BD000C014080B500AFF7
:10077C004FF48061104801F07AFB4FF400510E48A1
:10078C0001F075FB00224FF400710B4801F057FB90
:10079C0000224FF48071084801F051FB00224FF405
:1007AC008051054801F04BFB00224FF400610248D8
:1007BC0001F045FB00BF80BD000C014080B500AFCF
:1007CC000F4B1B68013B032B16D801A252F823F0E8
:1007DC00ED070008F3070008F9070008FF070008F9
:1007EC00FFF70AFE09E0FFF771FF06E0FFF796FF3F
:1007FC0003E0FFF7BBFF00E000BF00BF80BD00BF00
:10080C000000002080B582B000AF9C4B1B78002B01
:10081C0002D0012B18D024E00020FFF78FFD0346F7
:10082C00002B1BD0954B01221A70954B1B68013382
:10083C00934A1360924B1B68042B0FDD904B0122E3
:10084C001A6000F0B3F909E00020FFF777FD0346CA
:10085C00002B05D1894B00221A7001E000BF00E08B
:10086C0000BF864B5B78022B00F09B80022B00F3C1
:10087C00E680002B02D0012B45D0E0E00120FFF7F1
:10088C005DFD0346002B34D07C4B01225A707C4B0F
:10089C001B68042B20D0042B2DDC022B02D0032B45
:1008AC000DD028E0774B1B680133764A1360754BEB
:1008BC001B68632B21DD734B00221A601DE0724B09
:1008CC001B680133704A13606F4B1B68632B16DD7A
:1008DC006D4B00221A6012E06C4B1B6801336B4AA3
:1008EC0013606A4B1B68632B0BDD684B00221A608C
:1008FC0007E000BFA4E000BFA2E000BFA0E000BF83
:10090C009EE000BF9CE00120FFF718FD0346002B82
:10091C0002D15A4B00225A700120FFF729FD0346E1
:10092C00002B34D0554B02225A70554B1B68042BAC
:10093C0020D0042B2DDC022B02D0032B0DD028E071
:10094C00504B1B6801334F4A13604E4B1B68632B93
:10095C0021DD4C4B00221A601DE04B4B1B68013310
:10096C00494A1360484B1B68632B16DD464B00222B
:10097C001A6012E0454B1B680133444A1360434B29
:10098C001B68632B0BDD414B00221A6007E000BF94
:10099C0056E000BF54E000BF52E000BF50E000BF83
:1009AC004EE00120FFF7CAFC0346002B02D1334B6B
:1009BC0000225A700120FFF7F5FC0346002B34D0BF
:1009CC000120FFF709FD2E4B1B68042B20D0042BB4
:1009DC002DDC022B02D0032B0DD028E0294B1B68F9
:1009EC000133284A1360274B1B68632B21DD254BF1
:1009FC0000221A601DE0244B1B680133224A13604D
:100A0C00214B1B68632B16DD1F4B00221A6012E072
:100A1C001E4B1B6801331D4A13601C4B1B68632B58
:100A2C000BDD1A4B00221A6007E000BF08E000BF84
:100A3C0006E000BF04E000BF02E000BF00E000BF22
:100A4C000E4B9B78002B02D0012B6AD073E0022056
:100A5C00FFF774FC0346002B5FD0084B01229A7001
:100A6C0000237B60064B1B68042B3FD0042B56DC09
:100A7C00022B0DD0032B22D051E000BF60000020D0
:100A8C00000000207C0000206C000020740000207E
:100A9C002B4B1A682B4B1B68D31A7B60284B1B689B
:100AAC00284A1360284B1A687B681344264A136043
:100ABC00264B1A687B681344244A136030E0244B9D
:100ACC001A68244B1B68D31A7B60214B1B68214A84
:100ADC0013601C4B1A687B6813441A4A1360184B3A
:100AEC001A687B681344164A136019E0174B1A688E
:100AFC00154B1B68D31A7B60144B1B68124A13608E
:100B0C00114B1A687B6813440F4A13600F4B1A6819
:100B1C007B6813440D4A136002E000BF0BE000BF7A
:100B2C0009E00220FFF70AFC0346002B02D10A4B16
:100B3C0000229A7000BF00BF0837BD4680BD00BFC1
:100B4C007C00002068000020700000207400002051
:100B5C006C000020780000206000002080B400AF02
:100B6C000C4B0A221A600C4B03221A600B4B072207
:100B7C001A60084B1B680A4A1360074B1B68094A2A
:100B8C001360064B1B68084A136000BFBD4680BC4F
:100B9C00704700BF68000020780000207000002023
:100BAC007C0000206C0000207400002080B400AF9A
:100BBC00084B1B68084A1360084B1B68084A1360F3
:100BCC00084B00221A70084B02221A7000BFBD4657
:100BDC0080BC7047680000200400002070000020DA
:100BEC0008000020630000200C00002080B582B0BB
:100BFC0000AF78607B68092B00F2808101A252F86B
:100C0C0023F000BF390C0008810C0008C90C000847
:100C1C00110D0008590D0008A10D0008E90D000880
:100C2C00310E0008790E0008C10E000801220121C6
:100C3C00B54801F004F901220221B34801F0FFF894
:100C4C0001220421B04801F0FAF801220821AE4833
:100C5C0001F0F5F801221021AB4801F0F0F8012267
:100C6C002021A94801F0EBF800224021A64801F010
:100C7C00E6F844E100220121A34801F0E0F801224A
:100C8C000221A14801F0DBF8012204219E4801F069
:100C9C00D6F8002208219C4801F0D1F8002210213E
:100CAC00994801F0CCF800222021974801F0C7F8B0
:100CBC0000224021944801F0C2F820E101220121D8
:100CCC00914801F0BCF8012202218F4801F0B7F8DD
:100CDC00002204218C4801F0B2F8012208218A4834
:100CEC0001F0ADF801221021874801F0A8F800228C
:100CFC002021854801F0A3F801224021824801F00F
:100D0C009EF8FCE0012201217F4801F098F80122B5
:100D1C0002217D4801F093F8012204217A4801F068
:100D2C008EF801220821784801F089F80022102160
:100D3C00754801F084F800222021734801F07FF8F7
:100D4C0001224021704801F07AF8D8E000220121FC
:100D5C006D4801F074F8012202216B4801F06FF824
:100D6C0001220421684801F06AF800220821664833
:100D7C0001F065F800221021634801F060F80122AF
:100D8C002021614801F05BF8012240215E4801F00E
:100D9C0056F8B4E0012201215B4801F050F8002222
:100DAC000221594801F04BF801220421564801F068
:100DBC0046F801220821544801F041F80022102184
:100DCC00514801F03CF8012220214F4801F037F83E
:100DDC00012240214C4801F032F890E0012201211F
:100DEC00494801F02CF800220221474801F027F86D
:100DFC0001220421444801F022F801220821424832
:100E0C0001F01DF8012210213F4801F018F80122D1
:100E1C0020213D4801F013F8012240213A4801F00D
:100E2C000EF86CE001220121374801F008F801228C
:100E3C000221354801F003F801220421324800F068
:100E4C00FEFF00220821304800F0F9FF002210219B
:100E5C002D4800F0F4FF002220212B4800F0EFFF7A
:100E6C0000224021284800F0EAFF48E0012201213D
:100E7C00254800F0E4FF01220221234800F0DFFFA7
:100E8C0001220421204800F0DAFF012208211E482B
:100E9C0000F0D5FF012210211B4800F0D0FF0122E9
:100EAC002021194800F0CBFF01224021164800F008
:100EBC00C6FF24E001220121134800F0C0FF0122EB
:100ECC000221114800F0BBFF012204210E4800F062
:100EDC00B6FF012208210C4800F0B1FF01221021BD
:100EEC00094800F0ACFF01222021074800F0A7FFC1
:100EFC0001224021044800F0A2FF00E000BF00BF27
:100F0C000837BD4680BD00BF0008014080B400AF6B
:100F1C00104B1B68013B032B16D801A252F823F08F
:100F2C003D0F0008430F0008490F00084F0F000841
:100F3C00094B1B680AE0094B1B6807E0084B1B6850
:100F4C0004E0084B1B6801E000BF00231846BD46B7
:100F5C0080BC704700000020040000207C000020B2
:100F6C006C0000207400002080B400AF104B1B6894
:100F7C00013B032B16D801A252F823F0990F00085D
:100F8C009F0F0008A50F0008AB0F0008094B1B684A
:100F9C000AE0094B1B6807E0084B1B6804E0084B90
:100FAC001B6801E000BF00231846BD4680BC70479B
:100FBC0000000020080000207C0000206C000020B5
:100FCC007400002080B500AF804B1B68042B00F22E
:100FDC00F68001A252F823F0F90F00085510000812
:100FEC00BB100008171100087D11000801224FF4F6
:100FFC008051774800F023FF01224FF400617448C0
:10100C0000F01DFF01224FF48061714800F017FFC2
:10101C0001224FF400716E4800F011FF00224FF4D2
:10102C0080716B4800F00BFFFFF770FF0346694AB5
:10103C0082FB03129210DB17D31A1846FFF7D6FD6A
:10104C00624B01221A60BEE001224FF480716048AD
:10105C0000F0F5FE01224FF480515D4800F0EFFEE8
:10106C0001224FF400615A4800F0E9FE01224FF4CE
:10107C008061574800F0E3FE00224FF400715448A1
:10108C0000F0DDFEFFF742FF0146524B83FB0123CC
:10109C009A10CB17D21A13469B0013445B00CA1A42
:1010AC001046FFF7A3FD494B02221A608BE0012288
:1010BC004FF40071464800F0C2FE01224FF48071DB
:1010CC00434800F0BCFE01224FF48051404800F030
:1010DC00B6FE01224FF400613D4800F0B0FE002244
:1010EC004FF480613A4800F0AAFEFFF73DFF03463B
:1010FC00384A82FB03129210DB17D31A1846FFF7FB
:10110C0075FD324B03221A605DE001224FF48061C1
:10111C002F4800F094FE01224FF400712C4800F08F
:10112C008EFE01224FF48071294800F088FE0122C6
:10113C004FF48051264800F082FE00224FF40061EB
:10114C00234800F07CFEFFF70FFF0146214B83FB89
:10115C0001239A10CB17D21A13469B0013445B0041
:10116C00CA1A1046FFF742FD184B04221A602AE0F7
:10117C0001224FF40061164800F061FE01224FF489
:10118C008061134800F05BFE01224FF4007110489F
:10119C0000F055FE01224FF480710D4800F04FFE17
:1011AC0000224FF480510A4800F049FE0A4B1B689C
:1011BC001846FFF71BFD054B00221A6003E0034B9A
:1011CC0000221A6000BF00BF80BD00BF6400002079
:1011DC0000080140676666660000002080B500AF1D
:1011EC0000F02CFB00F038F900F048F800F0CEF8D5
:1011FC0000F080F8194801F07FFA64223221184877
:10120C0000F0E8F9FEF79CFFFFF7A8FC0122012192
:10121C00144800F0DFF901220121134800F0DAF93B
:10122C0064220121114800F0D5F901220121104856
:10123C0000F0D0F94FF47A723221094800F0CAF963
:10124C00012200210B4800F0C5F9012201210A48B6
:10125C0000F0C0F900F082F9FCE700BF800000202C
:10126C00E91700084D010008690B0008C9070008C0
:10127C0011080008D10F0008E101000880B590B0FA
:10128C0000AF07F1180328220021184601F0E4FDF5
:10129C003B1D00221A605A609A60DA601A610223C0
:1012AC00BB610123BB621023FB6200237B6307F14C
:1012BC001803184600F0F4FD0346002B01D000F093
:1012CC00C5F80F237B600023BB600023FB60002369
:1012DC003B6100237B613B1D0021184601F060F847
:1012EC000346002B01D000F0B1F800BF4037BD46DB
:1012FC0080BD000080B586B000AF07F10803002266
:10130C001A605A609A60DA603B4600221A605A6092
:10131C001D4B4FF080421A601B4B41F63F725A60D6
:10132C00194B00229A60184B0922DA60164B0022E6
:10133C001A61154B00229A61134801F08DF903468E
:10134C00002B01D000F082F84FF48053BB6007F102
:10135C00080319460C4801F00BFB0346002B01D087
:10136C0000F074F800233B6000237B603B46194679
:10137C00054801F0E3FC0346002B01D000F066F8B1
:10138C0000BF1837BD4680BD8000002080B586B0F8
:10139C0000AF07F1080300221A605A609A60DA6005
:1013AC00224B9B69214A43F0040393611F4B9B69B9
:1013BC0003F004037B607B681C4B9B691B4A43F066
:1013CC0008039361194B9B6903F008033B603B686E
:1013DC00002241F6FF71164800F031FD002243F661
:1013EC000771144800F02BFD41F6FF73BB6001231D
:1013FC00FB6000233B6102237B6107F10803194664
:10140C000B4800F08BFB43F60773BB600123FB60BA
:10141C0000233B6102237B6107F108031946054851
:10142C0000F07CFB00BF1837BD4680BD00100240A9
:10143C0000080140000C014080B582B000AF78601C
:10144C0000F03AF800BF0837BD4680BD80B400AF4D
:10145C0072B600BFFEE7000080B483B000AF00237B
:10146C00FB711DE0FB79134A1B01134400221A6027
:10147C00FB79104A1B011344043300221A60FB79D8
:10148C000C4A1B011344083300221A60FB79094AE9
:10149C001B0113440C3300221A70FB790133FB71CE
:1014AC00FB79092BDED900BF00BF0C37BD4680BCD1
:1014BC00704700BFC800002080B483B000AF002389
:1014CC00FB7140E0FB79244A1B0113441B68002B81
:1014DC0036D0FB79204A1B01134404331B68002BC4
:1014EC0022D1FB791C491A010A440C3212780132C0
:1014FC00D1B2194A1B0113440C330A461A70FB79FA
:10150C00154A1B01134408331B68002B18D0FA79B9
:10151C00FB79114912010A44083212680E491B0169
:10152C000B4404331A600BE0FB790B491A010A4493
:10153C0004321268013A08491B010B4404331A6047
:10154C00FB790133FB71FB79092BBBD900BF00BFC1
:10155C000C37BD4680BC7047C800002080B582B0F7
:10156C0000AF0023FB712AE0FB79194A1B011344DD
:10157C000C331B78002B1FD0FB79154A1B0113442D
:10158C001B689847FB7912491A010A440C321278ED
:10159C00013AD1B20E4A1B0113440C330A461A709D
:1015AC00FB790B4A1B01134408331B68002B03D136
:1015BC00FB79184600F050F8FB790133FB71FB798D
:1015CC00092BD1D900BF00BF0837BD4680BD00BF75
:1015DC00C800002080B487B000AFF860B9607A60B2
:1015EC000023FB752DE0FB7D1A4A1B0113441B687D
:1015FC00002B23D1FB7D174A1B011344FA681A6098
:10160C00FB7D144A1B0113440433BA681A60FB7D3A
:10161C00104A1B01134408337A681A60BB68002B0C
:10162C000CBF01230023DAB2FB7D1146094A1B01D2
:10163C0013440C330A461A70FB7D06E0FB7D013324
:10164C00FB75FB7D092BCED90A2318461C37BD46EA
:10165C0080BC7047C800002080B483B000AF7860B5
:10166C007B68092B23D8154A7B681B0113441B6824
:10167C00002B1CD0114A7B681B01134400221A60FA
:10168C000E4A7B681B011344043300221A600B4A78
:10169C007B681B011344083300221A60074A7B68DD
:1016AC001B0113440C3300221A70002300E00123A9
:1016BC0018460C37BD4680BC704700BFC8000020E0
:1016CC0080B485B000AF154B9B69144A43F00103FD
:1016DC009361124B9B6903F00103BB60BB680F4B1A
:1016EC00DB690E4A43F08053D3610C4BDB6903F08A
:1016FC0080537B607B680A4B5B68FB60FB6823F064
:10170C00E063FB60FB6843F08063FB60044AFB68AA
:10171C00536000BF1437BD4680BC704700100240B8
:10172C000000014080B584B000AF78607B681B6816
:10173C00B3F1804F13D10C4BDB690B4A43F001031F
:10174C00D361094BDB6903F00103FB60FB680022EA
:10175C0000211C2000F0ABF91C2000F0C4F900BFE4
:10176C001037BD4680BD00BF0010024080B400AFF2
:10177C00FEE780B400AFFEE780B400AFFEE780B4B4
:10178C0000AFFEE780B400AFFEE780B400AF00BF4F
:10179C00BD4680BC704780B400AF00BFBD4680BC66
:1017AC00704780B400AF00BFBD4680BC704780B5A9
:1017BC0000AF00F089F800BF80BD000080B500AF1D
:1017CC00024800F0E5FF00BF80BD00BF8000002094
:1017DC0080B400AF00BFBD4680BC704780B500AF81
:1017EC008021024800F043FB00BF80BD000801408F
:1017FC00FFF7EEFF0B480C490C4A002302E0D458CB
:10180C00C4500433C4188C42F9D3094A094C002340
:10181C0001E013600432A242FBD301F0F9FAFFF7A6
:10182C00DDFC7047000000201C000020B82E0008D2
:10183C001C0000206C010020FEE7000080B500AF0A
:10184C00084B1B68074A43F010031360032000F099
:10185C0023F90F2000F008F8FFF732FF0023184699
:10186C0080BD00BF0020024080B582B000AF786020
:10187C00124B1A68124B1B7819464FF47A73B3FB50
:10188C00F1F3B2FBF3F3184600F03BF90346002BDF
:10189C0001D001230EE07B680F2B0AD80022796857
:1018AC004FF0FF3000F003F9064A7B681360002309
:1018BC0000E0012318460837BD4680BD100000200B
:1018CC00180000201400002080B400AF054B1B78DA
:1018DC001A46054B1B681344034A136000BFBD46F0
:1018EC0080BC7047180000206801002080B400AF55
:1018FC00024B1B681846BD4680BC7047680100202F
:10190C0080B485B000AF78607B6803F00703FB60A0
:10191C000C4BDB68BB60BA684FF6FF031340BB602F
:10192C00FB681A02BB68134343F0BF6343F40033F4
:10193C00BB60044ABB68D36000BF1437BD4680BC93
:10194C00704700BF00ED00E080B400AF044BDB68D3
:10195C001B0A03F007031846BD4680BC704700BF46
:10196C0000ED00E080B483B000AF0346FB7197F943
:10197C000730002B0BDBFB7903F01F02064997F9AC
:10198C0007305B09012000FA02F241F8232000BF66
:10199C000C37BD4680BC704700E100E080B483B0DA
:1019AC0000AF03463960FB7197F90730002B0ADB57
:1019BC003B68DAB20C4997F907301201D2B20B44EA
:1019CC0083F800230AE03B68DAB20849FB7903F09C
:1019DC000F03043B1201D2B20B441A7600BF0C3732
:1019EC00BD4680BC704700BF00E100E000ED00E0A8
:1019FC0080B489B000AFF860B9607A60FB6803F01E
:101A0C000703FB61FB69C3F10703042B28BF042305
:101A1C00BB61FB690433062B02D9FB69033B00E075
:101A2C0000237B614FF0FF32BB6902FA03F3DA4308
:101A3C00BB681A407B699A404FF0FF317B6901FA11
:101A4C0003F3D9437B680B40134318462437BD4638
:101A5C0080BC704780B582B000AF78607B68013B7A
:101A6C00B3F1807F01D301230FE00A4A7B68013B6D
:101A7C0053600F214FF0FF30FFF790FF054B002212
:101A8C009A60044B07221A60002318460837BD469B
:101A9C0080BD00BF10E000E080B582B000AF786080
:101AAC007868FFF72DFF00BF0837BD4680BD80B5B5
:101ABC0086B000AF0346B9607A60FB7300237B618C
:101ACC00FFF742FF78617A68B9687869FFF790FF91
:101ADC00024697F90F3011461846FFF75FFF00BF1B
:101AEC001837BD4680BD80B582B000AF0346FB7190
:101AFC0097F907301846FFF735FF00BF0837BD468A
:101B0C0080BD80B582B000AF78607868FFF7A2FF27
:101B1C00034618460837BD4680BD000080B48BB024
:101B2C0000AF7860396000237B6200233B6248E1A0
:101B3C0001227B6A02FA03F3FB613B681B68FA69BA
:101B4C001340BB61BA69FB699A4240F037813B682C
:101B5C005B68A34A93425ED0A14A934275D8A14ACE
:101B6C00934258D09F4A93426FD89F4A934252D087
:101B7C009D4A934269D89D4A93424CD09B4A9342CA
:101B8C0063D89B4A934246D0994A93425DD8122B14
:101B9C002AD8122B59D801A252F823F0231C000882
:101BAC00FD1B00080F1C0008511C0008571C0008E6
:101BBC00571C0008571C0008571C0008571C00082D
:101BCC00571C0008571C0008571C0008571C00081D
:101BDC00571C0008571C0008571C0008571C00080D
:101BEC00051C0008191C0008824A934213D02CE0F3
:101BFC003B68DB683B6229E03B68DB6804333B6293
:101C0C0024E03B68DB6808333B621FE03B68DB6821
:101C1C000C333B621AE03B689B68002B02D1042317
:101C2C003B6213E03B689B68012B05D108233B62A8
:101C3C007B68FA691A6109E008233B627B68FA69E0
:101C4C005A6103E000233B6200E000BFBB69FF2B3D
:101C5C0001D87B6801E07B6804337B61BB69FF2B97
:101C6C0002D87B6A9B0002E07B6A083B9B003B61CD
:101C7C007B691A680F213B6901FA03F3DB431A40B5
:101C8C00396A3B6901FA03F31A437B691A603B68B2
:101C9C005B6803F08053002B00F09080564B9B69DF
:101CAC00554A43F001039361534B9B6903F00103C5
:101CBC00BB60BB68514A7B6A9B08023352F82330E5
:101CCC00FB607B6A03F003039B000F2202FA03F311
:101CDC00DB43FA681340FB607B68494A93420DD0A2
:101CEC007B68484A934207D07B68474A934201D1AC
:101CFC00022304E0032302E0012300E000237A6ABC
:101D0C0002F0030292009340FA681343FB603B49D4
:101D1C007B6A9B080233FA6841F823203B685B68B6
:101D2C0003F48013002B06D0384B9A683749BB69F3
:101D3C0013438B6006E0354B9A68BB69DB43334930
:101D4C0013408B603B685B6803F40013002B06D0D8
:101D5C002E4BDA682D49BB691343CB6006E02B4B45
:101D6C00DA68BB69DB4329491340CB603B685B688D
:101D7C0003F40033002B06D0244B5A682349BB696B
:101D8C0013434B6006E0214B5A68BB69DB431F4988
:101D9C0013404B603B685B6803F48033002B06D028
:101DAC001A4B1A681949BB6913430B6006E0174BB1
:101DBC001A68BB69DB43154913400B607B6A01331E
:101DCC007B623B681A687B6A22FA03F3002B7FF470
:101DDC00AFAE00BF00BF2C37BD4680BC704700BF04
:101DEC000000321000003110000022100000211001
:101DFC000000121000001110001002400000014001
:101E0C0000080140000C014000100140000401409A
:101E1C0080B485B000AF78600B467B807B689A6895
:101E2C007B881340002B02D00123FB7301E00023BD
:101E3C00FB73FB7B18461437BD4680BC704780B4DF
:101E4C0083B000AF78600B467B8013467B707B7849
:101E5C00002B03D07A887B681A6103E07B881A0414
:101E6C007B681A6100BF0C37BD4680BC704780B4DC
:101E7C0085B000AF78600B467B807B68DB68FB60CD
:101E8C007A88FB6813401A04FB68D9437B880B40A3
:101E9C001A437B681A6100BF1437BD4680BC70477B
:101EAC0080B586B000AF78607B68002B01D1012330
:101EBC006CE27B681B6803F00103002B00F0878049
:101ECC00924B5B6803F00C03042B0CD08F4B5B68BC
:101EDC0003F00C03082B12D18C4B5B6803F480339A
:101EEC00B3F5803F0BD1894B1B6803F40033002BF7
:101EFC006CD07B685B68002B68D1012346E27B6861
:101F0C005B68B3F5803F06D1804B1B687F4A43F476
:101F1C00803313602EE07B685B68002B0CD17B4B0D
:101F2C001B687A4A23F480331360784B1B68774A1A
:101F3C0023F4802313601DE07B685B68B3F5A02F4E
:101F4C000CD1724B1B68714A43F4802313606F4BA6
:101F5C001B686E4A43F4803313600BE06B4B1B68B9
:101F6C006A4A23F480331360684B1B68674A23F476
:101F7C00802313607B685B68002B13D0FFF7B6FCE3
:101F8C00386108E0FFF7B2FC02463B69D31A642BB8
:101F9C0001D90323FAE15D4B1B6803F40033002BDA
:101FAC00F0D014E0FFF7A2FC386108E0FFF79EFCCC
:101FBC0002463B69D31A642B01D90323E6E1534B48
:101FCC001B6803F40033002BF0D100E000BF7B68EA
:101FDC001B6803F00203002B63D04C4B5B6803F0CF
:101FEC000C03002B0BD0494B5B6803F00C03082B44
:101FFC001CD1464B5B6803F48033002B16D1434B4A
:10200C001B6803F00203002B05D07B681B69012BB6
:10201C0001D00123BAE13D4B1B6823F0F8027B6829
:10202C005B69DB00394913430B603AE07B681B6941
:10203C00002B20D0364B01221A60FFF757FC386179
:10204C0008E0FFF753FC02463B69D31A022B01D977
:10205C0003239BE12D4B1B6803F00203002BF0D0F4
:10206C002A4B1B6823F0F8027B685B69DB0027496D
:10207C0013430B6015E0264B00221A60FFF736FC69
:10208C00386108E0FFF732FC02463B69D31A022B99
:10209C0001D903237AE11D4B1B6803F00203002BCB
:1020AC00F0D17B681B6803F00803002B3AD07B68E7
:1020BC009B69002B19D0174B01221A60FFF716FCF5
:1020CC00386108E0FFF712FC02463B69D31A022B79
:1020DC0001D903235AE10D4B5B6A03F00203002B79
:1020EC00F0D0012000F09AFA1CE00A4B00221A6092
:1020FC00FFF7FCFB38610FE0FFF7F8FB02463B698A
:10210C00D31A022B08D9032340E100BF0010024070
:10211C0000004242800442429E4B5B6A03F0020381
:10212C00002BE9D17B681B6803F00403002B00F043
:10213C00A6800023FB75974BDB6903F08053002BC3
:10214C000DD1944BDB69934A43F08053D361914B8F
:10215C00DB6903F08053BB60BB680123FB758E4BBE
:10216C001B6803F48073002B18D18B4B1B688A4AB5
:10217C0043F480731360FFF7B9FB386108E0FFF795
:10218C00B5FB02463B69D31A642B01D90323FDE04E
:10219C00814B1B6803F48073002BF0D07B68DB68E9
:1021AC00012B06D17B4B1B6A7A4A43F00103136265
:1021BC002DE07B68DB68002B0CD1764B1B6A754AD3
:1021CC0023F001031362734B1B6A724A23F004035E
:1021DC0013621CE07B68DB68052B0CD16D4B1B6A12
:1021EC006C4A43F0040313626A4B1B6A694A43F05E
:1021FC00010313620BE0674B1B6A664A23F0010371
:10220C001362644B1B6A634A23F0040313627B68FA
:10221C00DB68002B15D0FFF769FB38610AE0FFF78C
:10222C0065FB02463B69D31A41F28832934201D9CD
:10223C000323ABE0574B1B6A03F00203002BEED0D9
:10224C0014E0FFF753FB38610AE0FFF74FFB02463F
:10225C003B69D31A41F28832934201D9032395E0AA
:10226C004C4B1B6A03F00203002BEED1FB7D012BC0
:10227C0005D1484BDB69474A23F08053D3617B6817
:10228C00DB69002B00F08180424B5B6803F00C0390
:10229C00082B61D07B68DB69022B46D13F4B0022B7
:1022AC001A60FFF723FB386108E0FFF71FFB0246BB
:1022BC003B69D31A022B01D9032367E0354B1B680A
:1022CC0003F00073002BF0D17B681B6AB3F5803FE1
:1022DC0008D1304B5B6823F400327B689B682D4936
:1022EC0013434B602B4B5B6823F474127B68196AA5
:1022FC007B685B6A0B43274913434B60274B0122D6
:10230C001A60FFF7F3FA386108E0FFF7EFFA0246BC
:10231C003B69D31A022B01D9032337E01D4B1B68F1
:10232C0003F00073002BF0D02FE01C4B00221A603E
:10233C00FFF7DCFA386108E0FFF7D8FA02463B6990
:10234C00D31A022B01D9032320E0124B1B6803F094
:10235C000073002BF0D118E07B68DB69012B01D1F5
:10236C00012313E00B4B5B68FB60FB6803F48032CA
:10237C007B681B6A9A4206D1FB6803F470127B6877
:10238C005B6A9A4201D0012300E0002318461837FB
:10239C00BD4680BD0010024000700040600042420B
:1023AC0080B584B000AF786039607B68002B01D1B8
:1023BC000123D0E06A4B1B6803F007033A689A428A
:1023CC0010D9674B1B6823F0070265493B68134320
:1023DC000B60634B1B6803F007033A689A4201D009
:1023EC000123B8E07B681B6803F00203002B20D0AC
:1023FC007B681B6803F00403002B05D0594B5B680A
:10240C00584A43F4E06353607B681B6803F008038D
:10241C00002B05D0534B5B68524A43F46053536016
:10242C00504B5B6823F0F0027B689B684D4913436B
:10243C004B607B681B6803F00103002B40D07B686A
:10244C005B68012B07D1474B1B6803F40033002B4F
:10245C0015D101237FE07B685B68022B07D1414BD0
:10246C001B6803F00073002B09D1012373E03D4B73
:10247C001B6803F00203002B01D101236BE0394BE5
:10248C005B6823F003027B685B68364913434B603F
:10249C00FFF72CFAF8600AE0FFF728FA0246FB680F
:1024AC00D31A41F28832934201D9032353E02D4BC6
:1024BC005B6803F00C027B685B689B009A42EBD173
:1024CC00274B1B6803F007033A689A4210D2244B3F
:1024DC001B6823F0070222493B6813430B60204B17
:1024EC001B6803F007033A689A4201D0012332E0DB
:1024FC007B681B6803F00403002B08D0194B5B6846
:10250C0023F4E0627B68DB68164913434B607B68FD
:10251C001B6803F00803002B09D0124B5B6823F4F3
:10252C0060527B681B69DB000E4913434B6000F063
:10253C0021F802460B4B5B681B0903F00F030A4999
:10254C00CB5C22FA03F3094A1360094B1B6818464B
:10255C00FFF78AF9002318461037BD4680BD00BF2F
:10256C0000200240001002408C2E000810000020B9
:10257C001400002080B487B000AF0023FB60002360
:10258C00BB6000237B6100237B6000233B611E4BFF
:10259C005B68FB60FB6803F00C03042B02D0082B78
:1025AC0003D027E0194B3B6127E0FB689B0C03F041
:1025BC000F03174AD35C7B60FB6803F48033002B5A
:1025CC0010D0114B5B685B0C03F00103114AD35C18
:1025DC00BB607B680D4A02FB03F2BB68B2FBF3F3F2
:1025EC007B6104E07B680C4A02FB03F37B617B6933
:1025FC003B6102E0054B3B6100BF3B6918461C3751
:10260C00BD4680BC704700BF0010024000127A002B
:10261C009C2E0008AC2E000800093D0080B485B04B
:10262C0000AF78600A4B1B680A4AA2FB03235B0AC3
:10263C007A6802FB03F3FB6000BFFB685A1EFA606A
:10264C00002BF9D100BF00BF1437BD4680BC7047CA
:10265C0010000020D34D621080B582B000AF7860BE
:10266C007B68002B01D1012341E07B6893F83D305E
:10267C00DBB2002B06D17B68002283F83C20786803
:10268C00FFF750F87B68022283F83D207B681A68BC
:10269C007B6804331946104600F056FA7B68012219
:1026AC0083F846207B68012283F83E207B68012258
:1026BC0083F83F207B68012283F840207B6801224D
:1026CC0083F841207B68012283F842207B68012239
:1026DC0083F843207B68012283F844207B68012225
:1026EC0083F845207B68012283F83D20002318469F
:1026FC000837BD4680BD000080B485B000AF78605F
:10270C007B6893F83D30DBB2012B01D0012335E01F
:10271C007B68022283F83D207B681B68DA687B6843
:10272C001B6842F00102DA607B681B68164A934210
:10273C0009D07B681B68B3F1804F04D07B681B68A1
:10274C00124A934211D17B681B689B6803F0070304
:10275C00FB60FB68062B10D07B681B681A687B68D3
:10276C001B6842F001021A6007E07B681B681A685C
:10277C007B681B6842F001021A600023184614376C
:10278C00BD4680BC704700BF002C014000040040D7
:10279C0080B584B000AF78607B681B68DB68FB6039
:1027AC007B681B681B69BB60BB6803F00203002BD2
:1027BC0020D0FB6803F00203002B1BD07B681B6846
:1027CC006FF002021A617B6801221A777B681B6822
:1027DC009B6903F00303002B03D0786800F098F991
:1027EC0005E0786800F08BF9786800F09AF97B685E
:1027FC0000221A77BB6803F00403002B20D0FB687F
:10280C0003F00403002B1BD07B681B686FF00402E1
:10281C001A617B6802221A777B681B689B6903F438
:10282C004073002B03D0786800F072F905E07868EB
:10283C0000F065F9786800F074F97B6800221A776B
:10284C00BB6803F00803002B20D0FB6803F00803DF
:10285C00002B1BD07B681B686FF008021A617B6829
:10286C0004221A777B681B68DB6903F00303002BD7
:10287C0003D0786800F04CF905E0786800F03FF977
:10288C00786800F04EF97B6800221A77BB6803F079
:10289C001003002B20D0FB6803F01003002B1BD07F
:1028AC007B681B686FF010021A617B6808221A772C
:1028BC007B681B68DB6903F44073002B03D07868DA
:1028CC0000F026F905E0786800F019F9786800F056
:1028DC0028F97B6800221A77BB6803F00103002BF0
:1028EC000CD0FB6803F00103002B07D07B681B683E
:1028FC006FF001021A617868FEF79EFDBB6803F069
:10290C008003002B0CD0FB6803F08003002B07D056
:10291C007B681B686FF080021A61786800F06FFAB0
:10292C00BB6803F04003002B0CD0FB6803F04003A2
:10293C00002B07D07B681B686FF040021A61786827
:10294C0000F0F8F8BB6803F02003002B0CD0FB68F8
:10295C0003F02003002B07D07B681B686FF020026C
:10296C001A61786800F042FA00BF1037BD4680BD8E
:10297C0080B584B000AF786039600023FB737B684E
:10298C0093F83C30012B01D10223B4E07B68012287
:10299C0083F83C207B68022283F83D207B681B680F
:1029AC009B68BB60BB6823F07703BB60BB6823F4F8
:1029BC007F43BB607B681B68BA689A603B681B6886
:1029CC00B3F5005F3ED0B3F5005F00F28780B3F53E
:1029DC00805F00F08680B3F5805F7FD8702B1AD0B3
:1029EC00702B7BD8602B50D0602B77D8502B3CD0E1
:1029FC00502B73D8402B58D0402B6FD8302B64D031
:102A0C00302B6BD8202B60D0202B67D8002B5CD0C0
:102A1C00102B5AD062E07B6818683B6899683B6859
:102A2C005A683B68DB6800F06AF97B681B689B6836
:102A3C00BB60BB6843F07703BB607B681B68BA68FC
:102A4C009A604FE07B6818683B6899683B685A68E5
:102A5C003B68DB6800F053F97B681B689A687B68FD
:102A6C001B6842F480429A603CE07B6818683B68C3
:102A7C0059683B68DB681A4600F0CAF87B681B682B
:102A8C005021184600F021F92CE07B6818683B684F
:102A9C0059683B68DB681A4600F0E8F87B681B68ED
:102AAC006021184600F011F91CE07B6818683B683F
:102ABC0059683B68DB681A4600F0AAF87B681B680B
:102ACC004021184600F001F90CE07B681A683B685D
:102ADC001B681946104600F0F8F803E00123FB735D
:102AEC0000E000BF7B68012283F83D207B68002258
:102AFC0083F83C20FB7B18461037BD4680BD80B464
:102B0C0083B000AF786000BF0C37BD4680BC704707
:102B1C0080B483B000AF786000BF0C37BD4680BC7A
:102B2C00704780B483B000AF786000BF0C37BD46EF
:102B3C0080BC704780B483B000AF786000BF0C37A6
:102B4C00BD4680BC7047000080B485B000AF786093
:102B5C0039607B681B68FB607B682B4A934207D00B
:102B6C007B68B3F1804F03D07B68284A934208D12D
:102B7C00FB6823F07003FB603B685B68FA681343E7
:102B8C00FB607B68204A934207D07B68B3F1804F8F
:102B9C0003D07B681D4A934208D1FB6823F4407331
:102BAC00FB603B68DB68FA681343FB60FB6823F04F
:102BBC0080023B685B691343FB607B68FA681A60B0
:102BCC003B689A687B68DA623B681A687B689A6231
:102BDC007B680D4A934203D13B681A697B681A6380
:102BEC007B6801225A617B681B6903F00103002B8F
:102BFC0005D07B681B6923F001027B681A6100BF5A
:102C0C001437BD4680BC7047002C014000040040C6
:102C1C0080B487B000AFF860B9607A60FB681B6A5B
:102C2C007B61FB681B6A23F00102FB681A62FB687C
:102C3C009B693B613B6923F0F0033B617B681B01A3
:102C4C003A6913433B617B6923F00A037B617A6920
:102C5C00BB6813437B61FB683A699A61FB687A69CC
:102C6C001A6200BF1C37BD4680BC704780B487B069
:102C7C0000AFF860B9607A60FB681B6A7B61FB6827
:102C8C001B6A23F01002FB681A62FB689B693B61AC
:102C9C003B6923F470433B617B681B033A69134324
:102CAC003B617B6923F0A0037B61BB681B017A69E4
:102CBC0013437B61FB683A699A61FB687A691A6213
:102CCC0000BF1C37BD4680BC704780B485B000AFD8
:102CDC00786039607B689B68FB60FB6823F070034D
:102CEC00FB603A68FB68134343F00703FB607B68A7
:102CFC00FA689A6000BF1437BD4680BC704780B438
:102D0C0087B000AFF860B9607A603B60FB689B6885
:102D1C007B617B6923F47F437B613B681A027B6890
:102D2C001A43BB6813437A6913437B61FB687A6966
:102D3C009A6000BF1C37BD4680BC704780B485B01C
:102D4C0000AF786039607B6893F83C30012B01D17F
:102D5C00022341E07B68012283F83C207B6802223D
:102D6C0083F83D207B681B685B68FB607B681B6895
:102D7C009B68BB60FB6823F07003FB603B681B68BF
:102D8C00FA681343FB607B681B68FA685A607B68BF
:102D9C001B68144A934209D07B681B68B3F1804FBF
:102DAC0004D07B681B68104A93420CD1BB6823F09B
:102DBC008003BB603B685B68BA681343BB607B688D
:102DCC001B68BA689A607B68012283F83D207B6897
:102DDC00002283F83C20002318461437BD4680BCE3
:102DEC00704700BF002C01400004004080B483B049
:102DFC0000AF786000BF0C37BD4680BC704780B414
:102E0C0083B000AF786000BF0C37BD4680BC704704
:102E1C0070B500260C4D0D4C641BA410A64209D1B4
:102E2C0000F022F800260A4D0A4C641BA410A6429E
:102E3C0005D170BD55F8043B98470136EEE755F8BF
:102E4C00043B98470136F2E7B02E0008B02E00087C
:102E5C00B02E0008B42E000803460244934200D161
:102E6C00704703F8011BF9E7F8B500BFF8BC08BCC4
:102E7C009E467047F8B500BFF8BC08BC9E4670472C
:102E8C00000000000000000001020304060708090E
:102E9C0002030405060708090A0B0C0D0E0F10108F
:042EAC00010200001F
:042EB00031010008E4
:042EB4000D01000804
:102EB800010000000A0000000700000002000000F6
:0C2EC80000127A00100000000100000061
:04000005080017FDDB
:00000001FF
